:040000000200543274
:03000B000200B040
:100010000000E2FBEAF2802C0000E0FBEAF0802422
:10002000E6B50202EBF62200E2B50202EBF2220094
:10003000E0B50202EBF02230F6E0A88220F5D3EA28
:10004000C6F582228B822230F6E6A88220F5D9807E
:01005000CFE0
:0300AD00020051FD
:0300510002046A3C
:1000B000325389F0438901758C3C758AB0D2A9D23C
:1000C000AFD28C438701C28CC28D22751C32751D44
:1000D000001204C5AE82AF837C007D00C3EC9EEDB0
:1000E00064808FF063F08095F0501AC007C006C09E
:1000F00005C0041200B1D004D005D006D0070CBC56
:1001000000DA0D80D7228582088583097580FF7506
:1001100090FF75A0FF75B0FF7D00BD0103ED80016C
:10012000E4FCE4BD020104FBE4BD030104FA790030
:10013000ED600BEC7026EB7041EA705C806A89F030
:1001400005F07880E4FF3392D28008A2D2EF13FF4B
:10015000E813F8D5F0F5E8F4F5A0804C89F005F047
:100160007E80E4FF3392D28008A2D2EF13FFEE1319
:10017000FED5F0F5EEF4F5B0802E89F005F07E8026
:10018000E4FF3392D28008A2D2EF13FFEE13FED524
:10019000F0F5EEF4F590801089F005F0740180021E
:1001A00025E0D5F0FBF4F580850882850983C0053C
:1001B000C004C003C002C0011200CBD001D002D0E5
:1001C00003D004D00509B908005003020130ED60E6
:1001D0000FBD0102800FBD0202800FBD0314800F0E
:1001E00075A0FF800D75B0FF80087590FF800375C6
:1001F00080FF0DBD0400500302011A22AE82AF83BE
:10020000750AFF750B00750CFF750D00750EFF75F7
:100210000F007510FF7511007580FF850E90850A1F
:10022000A0850CB07D008DF005F07B017C00800680
:10023000EB2BFBEC33FCD5F0F7EBF4FBECF4FCE53B
:100240000C5203E50D52048B0C8C0D8DF005F07BE8
:1002500080E4FC3392D28008A2D2EC13FCEB13FBB7
:10026000D5F0F5EBF4FBECF4FCE50E5203E50F5290
:10027000048B0E8C0F8B90850CB08E828F83C00701
:10028000C006C0051200CBD005D006D0070DBD08B2
:1002900000409374FE550AFCAD0B8C0A8D0B74FE66
:1002A0005510FCAD118C108D118C80850AA08E82AA
:1002B0008F83C007C0061200CBD006D007747D55CF
:1002C0000AFCAD0B8C0A8D0B747D5510FCAD118CA6
:1002D000108D118C80850AA08E828F83C007C00686
:1002E0001200CBD006D00774BB550AFCAD0B8C0AAC
:1002F0008D0B74BB5510FCAD118C108D118C80854D
:100300000AA08E828F83C007C0061200CBD006D011
:100310000774D7550AFCAD0B8C0A8D0B74D755109A
:10032000FCAD118C108D118C80850AA08E828F837C
:10033000C007C0061200CBD006D00774EF550AFCE8
:10034000AD0B8C0A8D0B74EF5510FCAD118C108D1C
:10035000118C80850AA08E828F830200CB85821249
:100360008583137514FF7515007516FF75170075D5
:1003700018FF751900751AFF751B007580FF851829
:10038000908514A08516B07D008DF005F07B017C72
:10039000008006EB2BFBEC33FCD5F0F7EBF4FBEC29
:1003A000F4FCE5165203E51752048B168C178DF0FA
:1003B00005F07B80E4FC3392D28008A2D2EC13FCDF
:1003C000EB13FBD5F0F5EBF4FBECF4FCE518520372
:1003D000E51952048B188C198B908516B085128202
:1003E000851383C0051200CBD0050DBD08004099D0
:1003F0007D008DF005F07B017C008006EB2BFBEC93
:1004000033FCD5F0F7EBF4FBECF4FCEB5514FAEC11
:100410005515FF8A148F15E51A5203E51B52048BFC
:100420001A8C1B8B808514A0851282851383C005CE
:100430001200CBD0050DBD080040B722AE82AF83BD
:100440007580FF7590FF75A0FF75B0FF8E828F835A
:100450000200CBAE82AF8375800075900075A0005E
:1004600075B0008E828F830200CB9000321201069D
:1004700090003212010690003212010690006412C0
:10048000035D90006412035D90006412035D9001AF
:0C049000F412043C90138812045380CE38
:06008300E478FFF6D8FD51
:100061007900E94400601B7A00900501780175A0D0
:1000710000E493F2A308B8000205A0D9F4DAF275FE
:02008100A0FFDE
:100089007800E84400600A790175A000E4F309D812
:10009900FC7800E84400600C7900900001E4F0A3CA
:0400A900D8FCD9FAAC
:10049C007A10E4FBFCE58225E0F582E58333F583F5
:1004AC00EB33FBEC33FCEB951CF5F0EC951D4006A7
:0904BC00FCABF0438201DADD2201
:0D00540075811D1204FDE58260030200515C
:1004C500C2D5E58330E70DD2D5E4C39582F582E444
:1004D5009583F583E51D30E70DB2D5E4C3951CF58D
:1004E5001CE4951DF51D12049C30D50BE4C39582C3
:0C04F500F582E49583F5832275820022D5
:00000001FF
