:1000000058C180C371C170C16FC16EC16DC16CC177
:100010006BC16AC169C1DACA05CB66C165C164C179
:1000200063C162C161C10E0355005300420061000B
:10003000730070001C037700770077002E006600C5
:1000400069007300630068006C002E0064006500A6
:10005000040309040600FF0901A101750815012622
:10006000FF00950809018102950809019102950890
:100070000901B20201C00A00000000000306BE012F
:10008000080001000000B4010800020000009C000C
:100090001400030057494E55534200000000000071
:1000A00000000000800004000100280044006500FA
:1000B000760069006300650049006E007400650009
:1000C000720066006100630065004700550049004A
:1000D000440000004E007B00410044003500370022
:1000E00044003300420039002D0031003100360059
:1000F00036002D0034003300460038002D00380053
:100100003700390030002D0030004200450031003A
:100110003400440044004300370035003000340010
:100120007D0000000800020001008800800004003B
:100130000100280044006500760069006300650046
:1001400049006E0074006500720066006100630083
:100150006500470055004900440000004E007B0048
:1001600041004400350037004400330042003900AC
:100170002D0031003100360036002D0034003300F0
:10018000460038002D0038003700390030002D00BF
:100190003100420045003100340044004400430077
:1001A00037003500300034007D00000008000200F8
:1001B000020088008000040001002800440065005F
:1001C000760069006300650049006E0074006500F8
:1001D0007200660061006300650047005500490039
:1001E000440000004E007B00410044003500370011
:1001F00044003300420039002D0031003100360048
:1002000036002D0034003300460038002D00380041
:100210003700390030002D00320042004500310027
:1002200034004400440043003700350030003400FF
:100230007D000000050F2100011C100500DF60DDBE
:10024000D88945C74C9CD2659D9E648A9F00000357
:1002500006BE015D0009024B0003010080FA09049B
:10026000000000FF00000209040100020300000278
:100270000921010100012222000705810308000A6B
:100280000705010308000A09040200010300000237
:100290000921010100012222000705820308003222
:1002A0001201010200000008C016DC051101010264
:1002B000030111241FBECFE5D4E0DEBFCDBF10E0A7
:1002C000A0E6B0E0EAEAF7E102C005900D92AC3694
:1002D000B107D9F721E0ACE6B0E001C01D92A13E24
:1002E000B207E1F708DA5FCA8BCE1F93CF93DF9393
:1002F000FA0120919D002E31B1F0208124FF17C01A
:10030000218138E823272183262FDC01CF010296A3
:10031000EC013D91399321501216DCF3EF01162FB9
:10032000EDD11C5F1883DF91CF911F9108952AE5CD
:100330002083EACF4DE950E0D8CF49EC50E0D5CF4B
:10034000EF92FF920F931F93CF93DF936091AF00D3
:10035000635067FD15C08091AC00CCE0D0E0C81BB5
:10036000D109CD54DF4F8091AB00803108F058C0E7
:10037000CE0197D88091AF00181614F41092AF00F8
:100380008091620084FF36C080916000909161008E
:100390008F3F980779F1BC018930910510F068E032
:1003A00070E0861B970B90936100809360008091B2
:1003B000920098E8892780939200D62F662359F0FF
:1003C0008091AA0087FF32C183E990E011D7D82F2E
:1003D000893008F059C16D2F83E990E08FD1DC5F3F
:1003E000DC3031F08FEF9FEF9093610080936000DD
:1003F000D093620084E196B3937059F48150D9F799
:100400001092B0001092A9008AE580939D0080931D
:10041000C900DF91CF911F910F91FF90EF90089548
:100420008D3209F0EFC0683009F0A4CF83EC8093DF
:1004300092008AE5809362001092AA002881822FA0
:10044000807691F0CE012CD58F3F980759F5288101
:1004500027FF02C08E819F8120E82093AA009093FD
:1004600061008093600086CF9A813C8110929B004E
:10047000898181111EC02F71223051F4313841F42D
:1004800090919D0081E09E3109F080E080939B0077
:1004900010929C002BE930E082E090E03093AE00B7
:1004A0002093AD002E813F8128173907C0F6C9017E
:1004B000D6CF282F2D7F2130A9F491110CC03138CF
:1004C00051F4813069F08EE180939D008BE480933C
:1004D0009E008093CA002BE930E090E080E0DECF00
:1004E0008AE5F2CF853019F49093B000F4CF8630CE
:1004F00009F069C08B81813061F480EA92E09093C9
:10050000AE008093AD0020E482E190E02093AA0049
:100510009BCF823051F485E592E09093AE008093BA
:10052000AD0020E48BE490E0F1CF833081F59111B0
:100530000AC080E590E09093AE008093AD0020E487
:1005400084E090E0E3CF913051F484E390E0909325
:10055000AE008093AD0020E48CE190E0D7CF9230E4
:1005600051F486E290E09093AE008093AD0020E4D9
:100570008EE090E0CBCF933011F580E090E0909347
:10058000AE008093AD0020E28AE090E0BFCF8132E0
:1005900051F487E692E09093AE008093AD0020E4A2
:1005A00089E090E0B3CF823251F484E590E09093FB
:1005B000AE008093AD0020E482E290E0A7CFCE01B0
:1005C0005CD420E4A3CF8830A9F0893041F4909323
:1005D000B2008AE580939D008093C9007CCF8A3069
:1005E00071F08B3009F077CF8BE480939E0080937D
:1005F000CA00EFCF22EB30E081E090E04FCF2BE953
:1006000030E0FACF8091AA0087FFB4CECE0164D645
:100610008F3F21F48EE180936200ACCE882309F4F1
:10062000A9CE1092610010926000A4CE0091AD009E
:100630001091AE0085FF13C083E9E82E80E0F82E0C
:10064000C62FC80197D8F70181937F010F5F1F4F15
:10065000C150B9F71093AE000093AD00BCCE86FF39
:100660000AC0A3E9B0E0F80184918D930F5F1F4F9A
:100670006150C9F7EFCFF801A3E9B0E081918D9304
:100680008F016150D9F7E6CF8FEF9FEF9093610014
:1006900080936000DEE1ACCE85B7826085BF8BB70A
:1006A00080648BBFADE9B0E08BE411968C93119719
:1006B000E9ECF0E081838AE58C9380830895DC0186
:1006C0008FEF9FEF332715C02D912827722F22958A
:1006D0002727822F269526952827239522703217C3
:1006E00077952795822F8927972F76952795972796
:1006F0008227615048F7809590950895E0DF8D93AB
:100700009D930895CF93CFB7CF93C395B09BE9F74F
:10071000B09B09C0B09B07C0B09B05C0B09B03C095
:10072000B09B01C0A6C0DF93C091AC00DD27CD54C3
:10073000DF4FB09B02C0DF91EBCF2F930F931F933E
:1007400006B32FEF00FB20F94F933F9316B34FEF03
:10075000012700FB21F93BE031C04E7F012F16B38A
:10076000216028C0102F4D7F2260000006B329C0F1
:100770004B7F2460012F000016B32BC016B3477FB8
:1007800028602AC04F7E06B320612CC04F7D16B36F
:1007900020622FC04F7B06B3206432C0422706B3CD
:1007A00049934FEF0000102710FB20F916B3137088
:1007B000C9F1297F91F2012700FB21F906B3237FBC
:1007C00089F2315058F1102710FB22F916B3277E19
:1007D00079F2012700FB23F92F7C81F206B3102761
:1007E00010FB24F92F7971F200C016B3012700FB2A
:1007F00025F92F7359F200C006B3102710FB26F914
:10080000223040F200C016B3012700FB27F9243044
:1008100028F64F77206816B30000F9CF10E41ABF0E
:1008200000271CC03B503195C31BD04010E41ABFB9
:100830000881033C11F10B3401F12091A9001981C9
:10084000110F1213EDCF4A81441F093659F10D32B1
:1008500011F0013E29F74F7009F0042F0093B10009
:100860003F914F911F910F912F91DF91CAB7C6FD14
:100870004CCFCF91CFBFCF9118952091B1002223BB
:1008800079F31091AF001123C1F53430C2F13093E8
:10089000AF002093AB001091AC003BE0311B3093D4
:1008A000AC002DC00091AF0001303CF50AE54F705F
:1008B00049F43091620034FD24C000936200C2E923
:1008C000D0E023C0423049F030919D0034FD19C082
:1008D00000939D00CEE9D0E018C03091C90034FDEE
:1008E00010C00093C900CAECD0E00FC02795A8F44F
:1008F0005150A9F4220F0000F9CF4AE503C042EDA0
:1009000001C0432FC4E1D0E032E017B31360C09AB6
:1009100017BB08B320E413E05F93012756E008BB40
:10092000279520F4515021F4220FF9CF012756E0EA
:1009300000003B5A08BBD0F2279528F4515029F407
:10094000220F0000F9CF012756E0279508BB20F4BD
:10095000515021F4220FF9CF012756E0299133237A
:1009600008BB21F60C7F1091B000110FC651D0408A
:1009700008BB11F01093A90010E41ABF016017B36F
:100980001C7F402F4C7F5F9100C000C008BB17BB8D
:1009900048BB66CF8FB9779BFECF8FB10895DC013E
:1009A000CB0121E1B695A795979587952A95D1F723
:1009B0002091D7002817D9F08093D700E091D50077
:1009C000F091D6008DE40995E091D500F091D60024
:1009D00080E00995E091D500F091D6008091D70094
:1009E0000995E091D500F091D60080E00994089532
:1009F0008823C1F0883018F12AEC34E03093D60017
:100A00002093D5001EB891E09093D8008A3091F0E1
:100A100058F4883091F0893071F081E08EB981E02E
:100A20008DB908958CE0E8CF8B30C9F38D30A9F7EC
:100A30001DB808959EB982E0F3CF83E0F1CF29E39A
:100A400035E03093D6002093D50027E030E0281B16
:100A5000310983E001C0880F2A95EAF78093D80016
:100A6000089522B79091D80082B7821B8917E0F3CE
:100A700008951F93CF93DF93182FD8E0C0E017FF9E
:100A800010C0C39A110FCC0FB499CF5FC59AE9DF9C
:100A9000C598E7DFD15099F78C2FDF91CF911F9147
:100AA0000895C398EFCFBD9ABB9ABA9AC49A8FEFB4
:100AB0008093D700089587B3837D87BBC498C3987C
:100AC0001DB810926C0008950F931F93CF93DF937E
:100AD00080916C00811103C08CE080936C00809148
:100AE0006C00811102C081E022C0C091D500D0917C
:100AF000D60084E0CA3CD80719F48DB180658DB961
:100B000013E0C29A81E048D1C2988EE345D18CEAC5
:100B1000FE01099583E5FE01099580E0FE01099536
:100B2000082F80E0FE010995033531F480E0DF9164
:100B3000CF911F910F910895C29A85E02DD18CEA33
:100B4000FE01099583E5FE01099580E0FE01099506
:100B500080E0FE010995893649F3115091F61DB8E0
:100B600080916C00815080936C0042DFB8CFCF92AF
:100B7000DF92EF92FF926B017C0111DF8C2D880FC9
:100B8000880F880F8870E091D500F091D6008062C0
:100B90000995D701C60129E0B695A7959795879540
:100BA0002A95D1F7E091D500F091D6000995D701AB
:100BB000C601B695A79597958795E091D500F091D8
:100BC000D6000995E091D500F091D60080E0FF9025
:100BD000EF90DF90CF900994CF92DF92EF92FF9247
:100BE000CF93DF936B017C01C42FD22FD8DE8C2DE5
:100BF000880F880F880F8870E091D500F091D6009B
:100C000080640995D701C60129E0B695A795979507
:100C100087952A95D1F7E091D500F091D6000995F6
:100C2000D701C601B695A79597958795E091D50010
:100C3000F091D6000995E091D500F091D6008C2F67
:100C40000995DD2321F0CF3721F48FE0A5D080E096
:100C50000FC0D2B7CEE1C701B60189DF8F37B9F730
:100C600082B78D1B8D33B8F3D2B7C150A1F781E0A5
:100C7000DF91CF91FF90EF90DF90CF900895CF92CA
:100C8000DF92EF92FF92CF93DF936B017C01C42F31
:100C900086DEE091D500F091D6008CE40995D7016D
:100CA000C60129E0B695A795979587952A95D1F71E
:100CB000E091D500F091D6000995D701C601B6950F
:100CC000A79597958795E091D500F091D600099565
:100CD000E091D500F091D60080E00995CF3F21F456
:100CE0008FE05AD080E00FC0D2B7CEE1C701B60185
:100CF0003EDF8F3FB9F782B78D1B8D33B8F3D2B784
:100D0000C150A1F781E0DF91CF91FF90EF90DF908C
:100D1000CF900895CF93DF93EC01E091D500F0914F
:100D2000D60080EA0995E091D500F091D6008D2F8C
:100D30000995E091D500F091D6008C2F0995E091AE
:100D4000D500F091D60080E0DF91CF9109941F93F8
:100D5000CF93DF93D82F192FC62FE091D500F091B4
:100D6000D60080EC0995E091D500F091D600812F56
:100D70000995E091D500F091D6008D2F0995E0916D
:100D8000D500F091D6008C2F09958EE105D080E03A
:100D9000DF91CF911F91089522B792B7921B9C3398
:100DA000E0F38150C9F70895BD9ABB98C39A50E209
:100DB00017D05A95E9F70895AC0188E605D0842F3D
:100DC00003D089E601D0852F0FD028E030E0382706
:100DD00080FB869506D02A95D1F730FB02D000D053
:100DE0006894BB98C39A16F0C398BB9AE091DA0056
:100DF000F091DB003197F0F7C59AE6B3E3FBE091A1
:100E0000DA00F091DB003197F0F7C598089520ECF7
:100E1000E7DF46F42A95E1F780E02AE1E5DF2A954D
:100E2000E9F7DECF28E030E0DBDF869587F9382769
:100E30002A95D1F7D5DF27F9322772F3D1DFD0CF4A
:100E4000DB01742FB9DF84E2BFDFE1DF8D937A9598
:100E5000D1F70895DB01742FAFDF83EFB5DF8DE1AC
:100E6000B3DF84E6B1DF8D91AFDF82E7ADDFCFDFA7
:100E70008078D9F77A9589F70895FC0123812F307E
:100E800061F48281811109C084E392E09093AE0005
:100E90008093AD0081E290E0089590E080E00895B5
:100EA000CF93DF93EC018881982F9076903409F0EE
:100EB0007EC18F7169F48981813069F4B4D38093E4
:100EC000790080916C0094DD10927700A19AEBDD9F
:100ED00090E080E0E0C0823041F4EDDDA19883E64F
:100EE00090E0DDD380937900F3CF833019F5E09162
:100EF000D500F091D6008A81099580938A00E0910F
:100F0000D500F091D6008B81099580938B00E091FC
:100F1000D500F091D6008C81099580938C00E091EA
:100F2000D500F091D6008D81099580938D0084E0E5
:100F300090E0B1C08430F1F48091770081110EC04F
:100F40008A819B81092E000CAA0BBB0B8093730036
:100F500090937400A0937500B09376008E819F816A
:100F6000909372008093710082E0809378008FEFFD
:100F70009FEF91C08730D1F48091770081110EC02E
:100F80008A819B81092E000CAA0BBB0B80937300F6
:100F900090937400A0937500B09376008E819F812A
:100FA000909372008093710083E0DFCF853021F44D
:100FB0008BDD80938A006DC0863081F5809177004B
:100FC00081110EC08A819B81092E000CAA0BBB0BDC
:100FD0008093730090937400A0937500B093760093
:100FE0008C812D81922F9F7090936E0090E1299FAC
:100FF000A001112444275F70840F952F911D9093B9
:10100000700080936F0020FD80936D008E819F8122
:10101000909372008093710081E0A7CF883001F532
:101020008091770081110EC08A819B81092E000C6E
:10103000AA0BBB0B8093730090937400A093750070
:10104000B09376001092700010926F0010926E00B4
:101050008E819F81909372008093710084E085CF90
:10106000893081F481E0809377008A819B81AC8113
:10107000BD818093730090937400A0937500B0932A
:10108000760026CF8A3071F48A8180936C001092AA
:101090008A0081E090E02AE830E03093AE002093AF
:1010A000AD0082C08B3081F48A819B819093DB00FC
:1010B0008093DA00C29ABA9A83E06EDEC298A19A4F
:1010C00080E16ADE71DE04CF8C30A1F480EC7CDE3E
:1010D00080E07ADE8AE060DEC29A85E05DDEC2985A
:1010E00085E05ADE87B3837D87BB88B3837D88BB69
:1010F000A198EECE8D3011F48ADE5BCF8E3019F4DC
:101100008A8162DEE5CE8F30B1F48A819B81092E1F
:10111000000CAA0BBB0B8093730090937400A093F8
:101120007500B09376008E819F81909372008093BA
:10113000710085E01ACF8031B1F48A819B81092E3C
:10114000000CAA0BBB0B8093730090937400A093C8
:101150007500B09376008E819F819093720080938A
:10116000710086E002CF8F3769F480916700809329
:101170008A008091680080938B0010928C001092FE
:101180008D00D5CE8D3509F0A3CE8C81873009F046
:101190009FCE80E48093AA0086E790E09093AE0013
:1011A0008093AD008EEB91E0DF91CF910895903266
:1011B00009F08ECE8F71813009F08ACE8B81833019
:1011C00009F086CE8981813051F0893009F080CED6
:1011D0008D819E81009709F45ECF87E0C6CE83E6BD
:1011E00090E09093AE008093AD0088E090E0DCCF7B
:1011F000EF92FF921F93CF93DF93162F20917800E9
:101200003EEF320F323090F4EC017C01E60EF11C1F
:10121000EC16FD0681F5183030F080917100909148
:101220007200892B09F5109278001EC0253009F054
:1012300051C0462FBC01809173009091740000DE74
:101240008091730090917400A0917500B091760028
:10125000810F911DA11DB11D8093730090937400A7
:10126000A0937500B0937600812FDF91CF911F91ED
:10127000FF90EF90089560917300709174008091D9
:1012800075009091760020917800223001F56FDC96
:1012900088838091730090917400A0917500B09143
:1012A00076000196A11DB11D809373009093740088
:1012B000A0937500B09376008091710090917200B8
:1012C000019790937200809371002196A1CFCB017A
:1012D00021DDDECF1FEFC8CFCF92DF92EF92FF92DA
:1012E0000F931F93CF938C01E62E8091780081306D
:1012F000C9F46801E00EF12EF11CC0E020917800E5
:10130000CE14DF0409F04BC0809178008730F1F5EE
:10131000F8018381882309F4B5C08130A1F5C801A3
:10132000CDD131C0843029F3863029F0C0E0873038
:1013300059F3CFEF2BC0462FB801809173009091E5
:10134000740088DD8091730090917400A091750005
:10135000B09176008E0D911DA11DB11D809373007B
:1013600090937400A0937500B09376008091710003
:10137000909172008E199109909372008093710080
:10138000C0E0892B19F410927800C1E08C2FCF9126
:101390001F910F91FF90EF90DF90CF900895F6018D
:1013A00040818091730090917400A0917500B0917C
:1013B0007600213009F063C020916F0030917000F9
:1013C000232B09F041C021E0BC01CD0105DC809157
:1013D0007100909172000197909372008093710058
:1013E000892BD9F46091730070917400809175001D
:1013F000909176001092780020916E0021FF0CC031
:1014000040916D0020916F003091700042171306DB
:1014100019F0F601408133DCC1E0809173009091B6
:101420007400A0917500B09176000196A11DB11DC8
:101430008093730090937400A0937500B09376002E
:10144000FFEFCF1ADF0A5ACF20E0BC01CD01C4DB89
:1014500080916D00815080936D008111B8CF6091B3
:101460007300709174008091750090917600F60180
:10147000408105DC80916F0080936D00A8CF642FC0
:1014800066DCA5CF808180936300818180936400B6
:1014900082818093650083E690E001D1809379009A
:1014A00072CFFC012781222321F1283018F1662315
:1014B00001F1579B1EC02091DD003091DC00231B01
:1014C000260F3327331F293731051CF02FEF2093C8
:1014D000AF00DC01E091DD00EF77F0E08D91E452A8
:1014E000FF4F82838091DD008F5F8093DD0061502C
:1014F00089F70895622FDDCFA2E8B0E080E0209167
:101500005F0190915E01291711F08730F1F480930B
:10151000890020915F0190915E01291791F0873039
:1015200081F4E0915E01EF77F0E0E25AFE4F8281B4
:10153000883038F08093890080915E018F5F8093BE
:101540005E0168E082E890E0F5C6E0915E01EF7729
:10155000F0E08F5FE25AFE4F92819D9390915E0181
:101560009F5F90935E01CBCF80917800909179003E
:10157000892B8093810068E08AE790E0DEC61F92A5
:101580000F920FB60F9211248F939F93EF93FF93B7
:1015900080915F0190915E01891B803871F0E0912C
:1015A0005F01EF77F0E08091E001E25AFE4F828325
:1015B00080915F018F5F80935F01FF91EF919F9119
:1015C0008F910F900FBE0F901F90189500902C00D8
:1015D0000092E001D4CF1F920F920FB60F92112408
:1015E0008F939F93EF93FF939091DD008091DC00A8
:1015F0009817B1F0E091DC00EF77F0E0E452FF4F94
:1016000082818CB98091DC008F5F8093DC00FF9138
:10161000EF919F918F910F900FBE0F901F90189593
:101620005598F5CFD8CF90981AB855981092DD00FC
:101630001092DC0010925F0110925E018091AF0069
:1016400087FD1092AF0080E008951092DD001092A7
:10165000DC0010925F0110925E0132E03BB930E293
:10166000613021F030E3623009F030E0443009F4B9
:101670003860203191F048F4283069F030BD90BDD9
:1016800089B988E98AB9909A0895283111F02032F1
:10169000A9F73660F3CF3260F1CF3460EFCFFC01B1
:1016A00080819181009709F4BECF6281262F287333
:1016B000462F44706370C9DF80E108950F931F9334
:1016C000CF93DF93FC0100819181C8E0D0E0802FAF
:1016D0006AE070E03BD08B0160E3680FCE0152D02E
:1016E000912F2297F0E0C030DF0789F7DF91CF918B
:1016F0001F910F91089583E083BF8FEF87BB8FE128
:101700004BDB17BAA09AC8D77894559912C090911C
:10171000DD008091DC00981761F0559A11D6809118
:101720009D0084FDE9DE8091C90084FFEECF1CDFBF
:10173000ECCF9091DD008091DC009813EFCF809189
:10174000AF0087FFEBCF1092AF00E8CFAA1BBB1B07
:1017500051E107C0AA1FBB1FA617B70710F0A61BB1
:10176000B70B881F991F5A95A9F780959095BC01D2
:10177000CD010895E199FECF9FBB8EBBE09A9927DA
:101780008DB30895262FE199FECF9FBB8EBBE09AC3
:1017900001970DB2021631F02DBB0FB6F894E29A04
:0A17A000E19A0FBE0895F894FFCF00
:0C17AA00FFFF5A00000000A1000000003A
:00000001FF
